:020000040800F2
:1000000000500020C5010008C9010008CB0100080C
:10001000E1010008E3010008F90100080000000008
:100020000000000000000000000000000F020008B7
:100030001102000800000000130200081502000869
:1000400029020008290200082902000829020008E4
:100050002902000829020008C9060008E506000870
:10006000010700081D0700083907000829020008D9
:1000700029020008290200082902000829020008B4
:1000800029020008290200082902000829020008A4
:100090002902000829020008290200082902000894
:1000A0002902000829020008290200082902000884
:1000B0002902000829020008290200082902000874
:1000C0002902000829020008290200082902000864
:1000D0002902000829020008290200082902000854
:1000E0002902000829020008290200080000000077
:1000F0000000000000000000000000000000000000
:1001000000000000000000005FF808F107B500F0F3
:10011000ADF8214A214B22498B4226D30021214BA5
:10012000214A934226D300F0ADF801A9684600F0B9
:1001300095F800251D4E1E4CA41BA410AC421CDCDF
:1001400000251C4E1C4CA41BA410AC421ADCDDE99B
:10015000000100F025FC0646184D194C641BA41044
:10016000002C14DC304600F075F852F8040F43F808
:10017000040BD1E743F8041BD3E756F82530984722
:100180000135DBE756F8253098470135DDE7013CBE
:1001900055F824309847E3E7940A0008000000204F
:1001A00028000020280000207000002054020008D1
:1001B00054020008540200085402000854020008C7
:1001C0005402000814480047FEE71EF0040F0CBF5D
:1001D000EFF30880EFF309807146104A1047FEE7FD
:1001E000FEE71EF0040F0CBFEFF30880EFF3098069
:1001F00071460B4A1047FEE71EF0040F0CBFEFF3E9
:100200000880EFF309807146064A1047FEE7FEE7D3
:10021000FEE7FEE7704700000D010008DF0100085F
:0A022000F70100080D020008FEE7D8
:10022C00980A00080000002028000020980A000806
:10023C0000000000000000002800002070000020DA
:08024C000000000000000000AA
:1002540008B500F017F8000001230360014B0B60A0
:10026400704700BF0000002008B500F01DF8024AE6
:10027400024B9A6008BD00BF0000000800ED00E0DA
:1002840000F08AB8BFF34F8F0549064BCA6802F4E1
:10029400E0621343CB60BFF34F8F00BFFDE700BFA5
:1002A40000ED00E00400FA05374B82B01A6842F012
:1002B40001021A605968354A0A405A601A6822F0E5
:1002C400847222F480321A601A6822F480221A603E
:1002D4005A6822F4FE025A604FF41F029A60002208
:1002E400009201921A6842F480321A601A6802F489
:1002F40000320192009A01320092019A1AB9009ACE
:10030400B2F5A06FF2D11A6812F4003218BF0122BC
:100314000192019A012A30D11D4A116841F010015D
:100324001160116821F003011160116841F00201AC
:1003340011605A685A605A685A605A6842F4806276
:100344005A605A6822F47C125A605A6842F4E812DD
:100354005A601A6842F080721A601A689201FCD5D9
:100364005A6822F003025A605A6842F002025A6044
:100374005A6802F00C02082AFAD14FF00062054BC9
:100384009A6002B0704700BF001002400000FFF8FE
:100394000020024000ED00E0104B11495A6802F0C1
:1003A4000C02082A0AD00F4A0A605B680E4AC3F39B
:1003B4000313D25C0B68D3400B6070475A685868CB
:1003C400C2F38342C00302F1020202D4074842434B
:1003D400EAE758688003F9D40248F8E700100240BD
:1003E4001800002000127A000800002000093D00D7
:1003F40001280AD002D302280DD070470120094BEE
:1004040088405A69104358617047064B8840DA693E
:100414001043D86170470120024B88409A69104309
:100424009861704700100240013803281FD8DFE8A4
:1004340000F0021F3B574FF080431A6A22F0020279
:100444001A629A6922F0FF029A619A699A619A691A
:1004540042F060029A619A6942F008029A619A69CC
:100464009A619A699A611A6A42F001021A627047A3
:100474004FF080431A6A22F020021A629A6922F429
:100484007F429A619A699A619A6942F4C0429A6178
:100494009A6942F400629A619A699A619A699A61C6
:1004A4001A6A42F01002E1E74FF080431A6A22F41C
:1004B40000721A62DA6922F0FF02DA61DA69DA613B
:1004C400DA6942F06002DA61DA6942F00802DA615C
:1004D400DA69DA61DA69DA611A6A42F48072C5E7C4
:1004E4004FF080431A6A22F400521A62DA6922F445
:1004F4007F42DA61DA69DA61DA6942F4C042DA61C8
:10050400DA6942F40062DA61DA69DA61DA69DA61D5
:100514001A6A42F48052A9E74FF080435A6942F0C4
:1005240001025A6100229A6240F6E442DA621A68D1
:1005340022F0F2021A601A6842F080021A601A6805
:100544001A601A681A601A681A6070474FF080427D
:10055400136843F00103136070470139032912D86B
:10056400DFE801F002060A0E4FF08043586370473B
:100574004FF08043986370474FF08043D8637047CF
:100584004FF0804318647047012870B525D002D31A
:10059400022842D070BD07290DD88E000F212F4CA0
:1005A400B140236823EA01032360236802FA06F1B9
:1005B40019432160EEE70F29ECD8A1F108000F21BF
:1005C400264C80006368814023EA0103636061680C
:1005D40002FA00F008436060DCE707290BD88D00BD
:1005E4000F211F4CA940236823EA010323602368D9
:1005F40002FA05F1DCE70F29CCD8A1F108030F2199
:1006040017489B004468994024EA0101416041680D
:1006140002FA03F30B434360BCE707290DD88C00AF
:100624000F210E4DA1402B6823EA01032B602B6898
:1006340002FA04F10B432B60ACE70F29AAD80F246C
:10064400064B0839586889008C4020EA0400586039
:10065400586802FA01F1014359609BE70008014020
:10066400000C014001280FD002D3022818D0704793
:10067400012A03D1104B8A401A6170471AB901222A
:100684000D4B8A405A617047012A02D18A400B4BB4
:10069400F2E7002AF7D1094B00FA01F159617047DA
:1006A400012A02D18A40064BE6E7002AEBD1012257
:1006B400034B8A40E6E700BF00080140000C0140FC
:1006C4000010014008B5044B1B689847034A53695E
:1006D40043F00103536108BD2C00002000040140D5
:1006E40008B5044B5B689847034A536943F0020317
:1006F400536108BD2C0000200004014008B5044BE0
:100704009B689847034A536943F00403536108BD47
:100714002C0000200004014008B5044BDB68984716
:10072400034A536943F00803536108BD2C000020B9
:100734000004014008B5044B1B699847034A5369F8
:1007440043F01003536108BD2C0000200004014055
:10075400194B062953F822204FF0000310B593607B
:1007640001EB81030CD81F24516B053B9C4021EA0B
:1007740004015163516B00FA03F30B43536310BD3F
:100784000C294FF01F010BD8146B233B994024EA2A
:1007940001011163116B00FA03F30B431363EEE7DA
:1007A400D46A413B994024EA0101D162D16A00FA3A
:1007B40003F30B43D362E2E71C000020114B53F810
:1007C40020309A6842F001029A609A6842F001026D
:1007D4009A609A6842F002029A609A6822F400626F
:1007E4009A605A6842F480125A605A6842F400329D
:1007F4005A605A6842F480225A605A6842F40022CD
:100804005A6070471C000020114B53F820309A683E
:1008140042F480029A601A689207FCD5D86C1A6870
:1008240022F002021A601A6822F010021A6083B2DF
:100834004FF47A70584340F6FF7390FBF3F34FF490
:10084400A5705843642390FBF3F080B2704700BF57
:100854001C000020002208B510460421FFF794FE76
:10086400002211461046FFF78FFE002201210420CA
:10087400FFF76EFF012200201146FFF769FF0421F4
:100884000020FFF79BFFBDE8084000210120FFF78F
:1008940095BF0020FFF7B8BF0120FFF7B5BF08B52B
:1008A4000B2203210020FFF76FFE0B220221002000
:1008B400FFF76AFE022206210020FFF765FE0222EE
:1008C40005210020FFF760FEFFF726FE0320FFF757
:1008D400ABFD0420FFF7A8FDBDE80840FFF736BED6
:1008E400002206211046FFF7BDBE0122062100208A
:1008F400FFF7B8BE002205211046FFF7B3BE012260
:1009040005210020FFF7AEBE08B503210020FFF744
:1009140024FEBDE8084004210020FFF71EBE10B5E8
:1009240004460321FFF719FE20460421FFF715FEB4
:10093400FFF7E0FFBDE81040FFF7D2BF10B5044653
:100944000321FFF70AFE20460421FFF706FEFFF706
:10095400D6FFBDE81040FFF7C8BF10B50446FFF747
:10096400BFFFFFF7CCFF20460321FFF7F6FD20462B
:10097400BDE810400421FFF7F0BD10B50446FFF7B1
:10098400B4FFFFF7B7FF20460321FFF7E6FD20463B
:10099400BDE810400421FFF7E0BD0000022108B5C6
:1009A4000846FFF725FD03210220FFF721FD002162
:1009B4000120FFF71DFD00210220FFF719FD334E32
:1009C40009210220FFF714FD0A210220FFF710FD80
:1009D4003546FFF764FFFFF73DFF2D4CFFF759FF46
:1009E4003080FFF759FF40F2A4623388208093429D
:1009F4000AD96FF4AF610844B0F5957F04D8A3F227
:100A0400DC5080B2FFF78BFF6FF4AF622B88134486
:100A1400B3F5957F08D86FF4AF6E23887344B3F5AC
:100A2400957F01D8FFF770FF2888B0F5AF6F0BD220
:100A34006FF4AF6C23886344B3F5957F04D8C0F595
:100A4400E16080B2FFF77AFF40F2A4632088984205
:100A54000BD96FF4AF612B880B44B3F5957F04D8A1
:100A6400A0F2DC5080B2FFF788FF2088B0F5AF6FAA
:100A7400B4D26FF4AF622B881344B3F5957FADD82D
:100A8400C0F5E16080B2FFF768FFA7E76C000020C3
:040A94006E000020D0
:100A98002800002000000000000000000000000006
:100AA800010203040607080900A24A0400240140C1
:080AB80000280140003C014050
:040000050800010DE1
:00000001FF
